:020000021000EC
:10F000004BC0000067C0000065C0000063C0000086
:10F0100061C000005FC000005DC000005BC0000078
:10F0200059C0000057C0000074C5000053C0000064
:10F0300051C000004FC000004DC000004BC0000098
:10F0400049C0000047C0000045C0000043C00000A8
:10F0500041C000003FC000003DC000003BC00000B8
:10F0600039C0000037C0000035C0000033C00000C8
:10F0700031C000002FC000002DC000002BC00000D8
:10F0800029C0000027C0000025C0000023C00000E8
:10F0900021C000001FC0000011241FBECFEFD0E22E
:10F0A000DEBFCDBF11E0A0E0B1E0E6EFFEEF01E092
:10F0B0000BBF02C007900D92A23CB107D9F71BBE4F
:10F0C00011E0A2ECB1E001C01D92A73DB107E1F74C
:10F0D00045D00FC795CF84E08093E9000DC08091A3
:10F0E000E8008B778093E80003C08EB3882359F043
:10F0F0008091E80082FFF9CF8091E80085FFEFCF93
:10F100008091F100089580E0089593E09093E900E4
:10F110009091E80095FD0DC09091E8009E77909346
:10F12000E80003C09EB3992331F09091E80090FF6E
:10F13000F9CF8093F100089591E080E80FB6F8943C
:10F1400080936100909361000FBE6A98729A8FED70
:10F150009EE20197F1F700C000000895CF93DF937E
:10F16000CDB7DEB729970FB6F894DEBF0FBECDBF7F
:10F17000009180021091810210928102109280020F
:10F1800084B78093D70184B7877F84BF88E10FB6A7
:10F19000F89480936000109260000FBECDDF8CB1B8
:10F1A00082FD0BC08091D70183FF11C080910901BE
:10F1B00090910A010817190751F020E030E0F90199
:10F1C000859194914FEF8F3F940709F0F4C281E04D
:10F1D00085BF82E085BF2F98279A2F9A7FD4789495
:10F1E0008FEF8093CC011092CB0183E085BD73E05B
:10F1F000372E66246394E5E02E2E55245394F9E0CF
:10F200004F2EC3C284E08093E9008091E80082FF22
:10F210006AC21092C5011092C4015DDF282F8534A7
:10F2200019F410920C0106C08857823010F0243572
:10F2300019F451DF8DE02EC22035E1F32C34D1F3E7
:10F24000243711F483E488C0213611F489E522C201
:10F25000213419F540DF082F3EDF282F30E0220F40
:10F26000331FA901662757FD6095762F000F0C8389
:10F270001B822B813C81C901AA2797FDA095BA2F3B
:10F28000482B592B6A2B7B2B4093C7015093C80105
:10F290006093C9017093CA01CDCF203711F483E583
:10F2A000F9C1233559F480E091E007E06C01F601E3
:10F2B00081916F012ADF0150D1F7EDC1263521F48C
:10F2C00081E323DF80E3E6C1233731F482E81DDFE9
:10F2D00087E91BDF8EE1DEC1253611F580E090E085
:10F2E000DC01FC01A0935B0030925700E89507B663
:10F2F00000FCFDCFFC01A0935B0020925700E89535
:10F3000007B600FCFDCF80509F4FAF4FBF4F8030FE
:10F31000F0EF9F07F1E0AF07F0E0BF0711F78ACFEA
:10F32000223719F4E1E0F0E00EC0263419F4E0E0F1
:10F33000F0E009C02E3419F4E3E0F0E004C0213518
:10F3400031F4E2E0F0E0409257008491A3C122360C
:10F3500031F489E5DADE81E0D8DE80E09BC1223439
:10F3600019F0273609F0F8C010920B012887B3DE98
:10F37000C82EB1DE082FAFDE382F855428858230A5
:10F3800028F08FE3C2DE50920B0185C1CA82198238
:10F3900010E089819A81082B192B273609F052C079
:10F3A00091E190935700E89580E0732E882E45C038
:10F3B000C090C701D090C801E090C901F090CA0187
:10F3C000E6E47E16E9F4882D90E0A0E0B0E08C2918
:10F3D0009D29AE29BF29ABBFFC01879196DE88200D
:10F3E00069F0D701C6010296A11DB11D8093C70126
:10F3F0009093C801A093C901B093CA0186241BC091
:10F40000D701C601B695A795979587955CD57DDE02
:10F410008091C7019091C801A091C901B091CA0122
:10F420000296A11DB11D8093C7019093C801A093BE
:10F43000C901B093CA01015010400115110509F02E
:10F44000B7CF29C18090C7019090C801A090C90191
:10F45000B090CA01363459F4F401A0925B003092A6
:10F460005700E89507B600FCFDCF5092C6017724FF
:10F4700080E039878F835EC029852634B1F53F81CE
:10F48000332369F1C090C701D090C801E090C90151
:10F49000F090CA0120DE8E831D82872D90E02D81A1
:10F4A0003E81822B932B0C01F601E0925B0060926F
:10F4B0005700E89511248091C7019091C801A0914F
:10F4C000C901B091CA010296A11DB11D8093C70167
:10F4D0009093C801A093C901B093CA0102C0FBDD9B
:10F4E000782E3F8136253F8323C0C090C701D0903E
:10F4F000C801E090C901F090CA01F694E794D7944E
:10F50000C794E9DD682FC601E6D48091C7019091C8
:10F51000C801A091C901B091CA010296A11DB11DF7
:10F520008093C7019093C801A093C901B093CA0109
:10F53000015010400115110509F09ECF3985363470
:10F5400009F078CEF401A0925B0020925700E89574
:10F5500007B600FCFDCF6ECE233499F4C090C701EE
:10F56000D090C801E090C901F090CA01B4DD90E0EC
:10F570000C01F601E0925B0060925700E8951124BF
:10F5800059CE2336C1F4C090C701D090C801E09095
:10F59000C901F090CA019FDDB701A601416090E06A
:10F5A0000C01FA0160935B0060925700E89511240A
:10F5B000D701C60140C02D3691F48091C7019091CA
:10F5C000C801A091C901B091CA01FC01A0935B00E0
:10F5D00020925700E89507B600FCFDCF2BCE2235D0
:10F5E00081F48091C7019091C801A091C901B091A7
:10F5F000CA01ABBFFC0107911691812F86DD802FD8
:10F6000049C0243421F5C090C701D090C801E090D2
:10F61000C901F090CA01F694E794D794C7945BDDD2
:10F62000682FC60158D48091C7019091C801A0915C
:10F63000C901B091CA010296A11DB11D8093C701F5
:10F640009093C801A093C901B093CA01F3CD2436A9
:10F65000F1F4C090C701D090C801E090C901F090CA
:10F66000CA01D701C601B695A795979587952BD462
:10F670004CDDD701C6010296A11DB11D8093C701C3
:10F680009093C801A093C901B093CA0104C02B3163
:10F6900011F08FE33ADD3092E9009091E80080911B
:10F6A000E8008E778093E80095FF04C010C08EB309
:10F6B0008823C9F08091E80080FFF9CF8091E800AD
:10F6C0008E778093E80003C08EB3882361F0809129
:10F6D000E80080FFF9CF44E04093E9008091E80022
:10F6E0008B778093E800D4D38091C4019091C501B9
:10F6F000E1E0893E9E0710F010920C018091C2015A
:10F700009091C301FFE081349F0710F010920C012B
:10F71000AA9B33C0AA9A9091CB018091CC019923E6
:10F7200041F08F3F21F41092CB018EEF0AC08F5F22
:10F7300008C0882329F45092CB015092CC0103C019
:10F7400081508093CC018091C601882349F080913B
:10F75000C4019091C50101969093C5018093C401A5
:10F7600080910B01882349F08091C2019091C301DF
:10F7700001969093C3018093C20196B58091CC010C
:10F78000981710F42F9A01C02F9880910C018823AC
:10F7900009F038CD8091E00081608093E0002BE09B
:10F7A00088E190E00FB6F894A895809360000FBEB2
:10F7B00020936000FFCF85B7806890E00FB6F89483
:10F7C00085BF0FBE85BF90E080E80FB6F8948093A8
:10F7D0006100909361000FBE2F98279A2F9AF9012C
:10F7E000099582E061EC42E006D183E061E842E104
:10F7F00002D184E060E842E1FEC08091CF01982F01
:10F800009F77913249F59091D0019032A1F09132D9
:10F8100019F5813A09F58091E800877F8093E80027
:10F820008DE091E067E070E046D08091E8008B7752
:10F830008093E8000895813279F48091E800877F11
:10F840008093E8008DE091E067E070E08DD08091DA
:10F85000E8008E778093E8000895923029F0933085
:10F8600041F0913061F410C08EE390E022E731E086
:10F870001EC0882371F0813089F08230A1F080E0D1
:10F8800090E020E030E013C082E190E020EB31E036
:10F890000EC084E090E02EE631E009C080E290E006
:10F8A00024E531E004C08EE290E024E231E0FA0188
:10F8B0003183208308952091D5013091D6012617F8
:10F8C000370720F4B901FC0120E035C0611571054E
:10F8D000D1F72091E8002E772093E800F4CF8EB383
:10F8E0008823F1F18530C1F18091E80083FD36C0B5
:10F8F0008091E80082FD2AC08091E80080FF1BC053
:10F900008091F2009091F30006C021912093F100C4
:10F910006150704001966115710519F088309105AC
:10F92000A0F321E08830910509F020E08091E80003
:10F930008E778093E8006115710589F6222379F6A8
:10F9400005C08EB3882361F0853061F08091E800B6
:10F9500082FFF7CF80E0089583E0089581E0089565
:10F9600082E0089583E008956115710529F42091DE
:10F97000E8002B772093E800382F292F25C08EB37D
:10F980008823A9F1853079F18091E80083FD2DC0AD
:10F990008091E80082FFF3CFE32FF22F08C080911F
:10F9A000F10081933E2F2F2F6150704041F03E2F88
:10F9B0002F2F8091F2009091F300009781F78091B2
:10F9C000E8008B778093E80061157105C1F605C0EA
:10F9D0008EB3882361F0853061F08091E80080FF6C
:10F9E000F7CF80E0089583E0089581E0089582E0F4
:10F9F000089583E008958F708093E900EBEEF0E0C6
:10FA0000808181608083EDEEF0E010826093EC00F5
:10FA100040838091EE00881F8827881F0895809179
:10FA2000CF0187FF11C003C08EB38823B1F080914E
:10FA3000E80082FFF9CF8091E8008B778093E8009F
:10FA400008958EB3882349F08091E80080FFF9CFB4
:10FA50008091E8008E778093E80008950F931F93BC
:10FA6000CF93DF9349D050D0C8EDD0E088818F7715
:10FA7000888388818068888388818F7D8883E7ED8B
:10FA8000F0E080818068808319BC1EBA1092CD019D
:10FA900000EE10E0F80180818B7F80838881816097
:10FAA000888380E060E042E0A6DFE1EEF0E0808164
:10FAB0008E7F8083E2EEF0E08081816080838081B0
:10FAC00088608083F80180818E7F80838881806157
:10FAD0008883DF91CF911F910F910895E8EDF0E0B9
:10FAE00080818F7E8083E7EDF0E08081816080837C
:10FAF00081E08093CE01B2CFE8EDF0E080818C7F91
:10FB000080831092E20008951092DA001092E100D2
:10FB100008951F920F920FB60F920BB60F921124F9
:10FB20002F933F934F935F936F937F938F939F9305
:10FB3000AF93BF93EF93FF938091DA0080FF1BC0D8
:10FB40008091D80080FF17C08091DA008E7F80936B
:10FB5000DA008091D90080FF0BC084E189BD86E185
:10FB600089BD09B400FEFDCF81E08EBB90D103C0FA
:10FB700019BC1EBA8CD18091E10080FF17C0809122
:10FB8000E20080FF13C08091E2008E7F8093E2004C
:10FB90008091E20080618093E2008091D8008062D1
:10FBA0008093D80019BC85E08EBB71D18091E100B3
:10FBB00084FF2CC08091E20084FF28C084E189BDCD
:10FBC00086E189BD09B400FEFDCF8091D8008F7D0C
:10FBD0008093D8008091E1008F7E8093E100809136
:10FBE000E2008F7E8093E2008091E200816080934A
:10FBF000E2008091CD01882321F48091E30087FF0A
:10FC000002C084E001C081E08EBB41D18091E1005F
:10FC100083FF21C08091E20083FF1DC08091E1003D
:10FC2000877F8093E10082E08EBB1092CD018091AE
:10FC3000E1008E7F8093E1008091E2008E7F8093CF
:10FC4000E2008091E20080618093E20080E060E069
:10FC500042E0D1DE1CD1FF91EF91BF91AF919F9116
:10FC60008F917F916F915F914F913F912F910F9065
:10FC70000BBE0F900FBE0F901F9018951F93CF9340
:10FC8000DF9300D0CDB7DEB788E0EFECF1E09091E4
:10FC9000F10091938150D9F7B0DD8091E80083FFA6
:10FCA000E2C08091CF019091D001953009F46CC0F1
:10FCB000963040F4913069F1913070F0933009F052
:10FCC000D2C027C0983009F4A1C0993009F4B0C05F
:10FCD000963009F0C8C07AC0803881F0823809F0C7
:10FCE000C2C08091D3018F708093E9009091EB00A6
:10FCF00081E095FF80E01092E90001C080E09091E2
:10FD0000E800977F9093E8008093F1001092F10053
:10FD100088C0882319F0823009F0A5C08F71823025
:10FD200009F0A1C08091D101882341F52091D30130
:10FD30002F7009F498C02093E9008091EB0080FFB8
:10FD40001DC08091D001833021F48091EB0080624E
:10FD500013C08091EB0080618093EB0081E090E024
:10FD600002C0880F991F2A95E2F78093EA0010924B
:10FD7000EA008091EB0088608093EB001092E9002C
:10FD80008091E800877F50C0882309F06CC01091F3
:10FD9000D1011F778091E3008078812B8093E3006D
:10FDA0008091E800877F8093E80039DE8091E80049
:10FDB00080FFFCCF8091E30080688093E3001123F3
:10FDC00011F083E001C082E08EBB4DC080588230CC
:10FDD00008F049C08091D1019091D2016091D30186
:10FDE000AE014F5F5F4F39DDBC01009709F43BC0A6
:10FDF0008091E800877F8093E80089819A815BDDAC
:10FE00008091E8008B778093E8002DC0803859F509
:10FE10008091E800877F8093E8008091CD018093F6
:10FE2000F1008091E8008E778093E800F8DD1BC038
:10FE30008823C9F49091D1019230A8F48091E80010
:10FE4000877F8093E8009093CD01E9DD8091CD011B
:10FE5000882321F48091E30087FF02C084E001C081
:10FE600081E08EBBBEDC8091E80083FF0AC08091F8
:10FE7000E800877F8093E8008091EB0080628093A8
:10FE8000EB000F900F90DF91CF911F91089508958F
:10FE9000CF938EB38823A9F08091E9008F70909161
:10FEA000EC0090FF02C0C0E801C0C0E0C82B109277
:10FEB000E9008091E80083FF01C0E0DECF70C093CD
:10FEC000E900CF910895F999FECF92BD81BDF89ACE
:10FED000992780B50895262FF999FECF1FBA92BDB4
:10FEE00081BD20BD0FB6F894FA9AF99A0FBE01961B
:06FEF0000895F894FFCF15
:10FEF6004D542D43444300800277770101000000F2
:10FF0600000000080E0330003000340035003700D2
:10FF1600350000002E0349006E0064007500730072
:10FF260074007200750069006E006F0020004300C7
:10FF36004400430020005300650072006900610020
:10FF46006C000000200349006E0064007500730019
:10FF560074007200750069006E006F0000000403F3
:10FF6600090409023E000201008032090400000172
:10FF760002020100052400100104240200052406E3
:10FF86000001070582030800FF09040100020A00B8
:10FF9600000007050402100005070583021000058E
:10FFA6001201100102000008D016570500010102D7
:02FFB600030145
:040000031000F000F9
:00000001FF
